S01B00006361724150505F53746174696344657369676E2E73726563D1
S11300000C943A000C9466010C948D010C944B02F0
S11300100C9457000C9457000C9457000C94570000
S11300200C9457000C9457000C9457000C948E02B7
S11300300C9457000C9457000C9457000C945700E0
S11300400C9457000C9457000C9457000C945700D0
S11300500C94570038043C04410446044B045004F7
S113006055045A0458065C06610666066B0670065B
S113007075067A0611241FBECFE5D8E0DEBFCDBFDA
S113008010E0A0E6B0E0E6EEF1E102C005900D92CA
S1130090A637B107D9F720E0A6E7B0E001C01D926A
S11300A0AD38B207E1F70E949F020C94F1080C945A
S11300B000000E94FE040E94C106089511E0C2E0FF
S11300C0D4E00E94E10661E070E080E090E00E94EC
S11300D0DC0486E790E00E94F206809176008E317F
S11300E038F4D093770069E18C2F0E9405051AC07B
S11300F092EE980F963038F4C093770069E183E06C
S11301000E9405050FC0833238F01093770069E12F
S1130110812F0E94050506C01092770069E180E0F6
S11301200E9405056EE170E080E090E00E94DC042E
S1130130C8CFFC01892B09F449C080818130B1F01A
S113014028F0823019F1833089F142C08281811113
S113015007C09AB38181809589238ABB81E0089581
S11301609AB38181892B8ABB81E0089582818111B0
S113017007C097B381818095892387BB81E0089567
S113018097B38181892B87BB81E008958281811196
S113019007C094B381818095892384BB81E008954D
S11301A094B38181892B84BB81E00895828181117C
S11301B007C091B381818095892381BB81E0089533
S11301C091B38181892B81BB81E0089580E00895FA
S11301D080E008958430D0F56830D0F5813091F016
S11301E028F08230D9F0833029F134C08BB3962FB4
S11301F0909589238BBB442379F18BB3682B6BBB1C
S113020081E0089588B3962F9095892388BB442371
S113021029F188B3682B68BB81E0089585B3962FD4
S11302209095892385BB4423D9F085B3682B65BB9E
S113023081E0089582B3962F9095892382BB44234D
S113024089F082B3682B62BB81E0089580E0089551
S113025080E0089580E0089581E0089581E00895A4
S113026081E0089581E0089584B7806484BF81E0CB
S11302700895CF93DF9300D01F92CDB7DEB78130BE
S113028041F018F0823049F015C08BB780648BBF01
S113029013C08BB780688BBF0FC08BB780628BBFD6
S11302A081E0898384E08A831B82CE0101960E94C7
S11302B0990002C080E001C081E09FB790689FBFB1
S11302C00F900F900F90DF91CF9108951F920F928E
S11302D00FB60F9211242F933F934F935F936F9315
S11302E07F938F939F93AF93BF93EF93FF93E0918B
S11302F07800F09179000995FF91EF91BF91AF914A
S11303009F918F917F916F915F914F913F912F9129
S11303100F900FBE0F901F9018951F920F920FB65B
S11303200F9211242F933F934F935F936F937F9377
S11303308F939F93AF93BF93EF93FF93E0917A00D2
S1130340F0917B000995FF91EF91BF91AF919F913F
S11303508F917F916F915F914F913F912F910F906A
S11303600FBE0F901F9018950F931F93CF93DF9399
S113037000D000D000D0CDB7DEB78C01CE010196FD
S113038026E0FC0111922A95E9F7F80121812983DD
S113039021E02B8327E02C8320E430E0309380009D
S11303A020937F000E943E0560E070E0F8018181A7
S11303B00E94D10580E00E943401F80180810E94EE
S11303C0390126960FB6F894DEBF0FBECDBFDF917C
S11303D0CF911F910F910895882329F0833008F459
S11303E056C080E008956130E1F018F0623089F180
S11303F050C0609183007091840020917F003091FF
S11304008000629FC001639F900D729F900D112424
S1130410A0E0B0E0FA0180839183A283B38381E0FA
S11304200895609181007091820020917F00309145
S11304308000629FC001639F900D729F900D1124F4
S1130440A0E0B0E0FA0180839183A283B38381E0CA
S113045008952091830030918400809181009091CF
S11304608200281B390B60917F0070918000269FC9
S1130470C001279F900D369F900D1124A0E0B0E09D
S1130480FA0180839183A283B38381E0089581E09C
S1130490089580E008951F920F920FB60F921124D1
S11304A02F933F934F935F936F937F938F939F9378
S11304B0AF93BF93EF93FF9380916000882391F0F3
S11304C08130D9F463E870E080E00E948C0660E03B
S11304D070E080E00E94D10580E00E943401109217
S11304E060000BC061E870E080E00E948C0681E04F
S11304F00E94340181E080936000FF91EF91BF91ED
S1130500AF919F918F917F916F915F914F913F91A7
S11305102F910F900FBE0F901F9018951F920F925E
S11305200FB60F9211248F9380917E008F5F80937A
S11305307E008F910F900FBE0F901F9018950E9410
S113054059000E945E00FDCFCF93C82F83E790E04F
S11305500E948103C33028F5CC2319F0C13089F0FF
S113056022C080E790E00E9499008DE690E00E940E
S113057099008AE690E00E94990081E080938500CA
S113058013C087E690E00E94990084E690E00E9400
S1130590990081E690E00E94990081E080938600B2
S11305A003C080E001C080E0CF9108958330F0F46F
S11305B0E82FF0E0EB57FF4F90819130C9F4882386
S11305C019F0813051F016C022E330E040E050E0F1
S11305D082E00E94720481E0089522E330E040E06A
S11305E050E082E00E94720481E0089580E0089562
S11305F080E0089580E00895833008F062C0882385
S113060019F0813081F15DC0613079F018F0623009
S1130610D9F057C040E064E083E00E94EA0040E083
S113062068E083E00E94EA004CC04FEF64E083E09E
S11306300E94EA0040E068E083E00E94EA0064E18E
S113064080E00E94D6023DC040E064E083E00E9466
S1130650EA004FEF68E083E00E94EA0064E180E092
S11306600E94D6022EC0613079F018F06230D9F0C1
S113067028C040E060E483E00E94EA0040E060E8D3
S113068083E00E94EA001DC04FEF60E483E00E9413
S1130690EA0040E060E883E00E94EA0064E181E06F
S11306A00E94D6020EC040E060E483E00E94EA00AB
S11306B04FEF60E883E00E94EA0064E181E00E9479
S11306C0D60280E008958330D0F4882319F0813075
S11306D061F015C040E064E083E00E94EA0040E07D
S11306E068E083E00E94EA000AC040E060E483E03E
S11306F00E94EA0040E060E883E00E94EA0080E0B3
S113070008950F931F93CF93DF9300D01F92CDB71B
S1130710DEB7009709F4DDC0DC012C912230E1F151
S1130720233009F498C02111D0C011968C918230E5
S1130730B1F028F4882351F0813061F024C0863070
S1130740C1F08730D9F08430F1F40EC083B783BF91
S113075081E01AC083B7816083BF81E015C083B78D
S1130760826083BF81E010C083B7836083BF81E070
S11307700BC083B7846083BF81E006C083B7856004
S113078083BF81E001C080E093B7906693BF93B7C5
S1130790906193BF12BE9EC08C018EB580618EBDE8
S11307A08FB5806A8FBD1DBC1CBC83E0898380E348
S11307B08A838FEF8B83CE0101960E949900F80102
S11307C081818230E1F028F4882359F0813069F086
S11307D07EC0863051F1873099F1843009F077C0BA
S11307E019C08EB58EBD81E075C08EB581608EBD99
S11307F081E090E090938B0080938A006BC08EB56B
S113080082608EBD88E090E090938B0080938A0094
S113081081E060C08EB583608EBD80E490E09093EB
S11308208B0080938A0081E055C08EB584608EBDB4
S113083080E091E090938B0080938A0081E04AC02D
S11308408EB585608EBD80E094E090938B0080939C
S11308508A0081E03FC0DC011196EC918E2F90E07C
S11308608830910560F5FC01E65DFF4F0C94D108DA
S113087085B585BD81E024C085B5816085BD81E0F5
S11308801FC085B5826085BD81E01AC085B58360CF
S113089085BD81E015C085B5846085BD81E010C04B
S11308A085B5856085BD81E00BC085B5866085BD55
S11308B081E006C085B5876085BD81E001C080E028
S11308C095B5906695BD14BC05C080E003C080E07A
S11308D001C080E00F900F900F90DF91CF911F9196
S11308E00F9108958F929F92AF92BF92CF92DF9211
S11308F0EF92FF92CF93823041F0833009F451C0DC
S1130900882309F44EC080E04DC0C62FA0918A0010
S1130910B0918B00AA0FBB1F0E94D7089B01AC01AA
S113092060E074E284EF90E00E94AF0869017A010C
S113093037BD26BD6C2F70E080E090E00E94B607C2
S113094020E030E048EC52E40E9413074B015C01C4
S1130950C701B6010E94B4079B01AC01C501B401F3
S11309600E9442080E9485077BBD6ABD79BD68BDAF
S113097080918A0090918B008034910529F48EB582
S113098083608EBD81E00EC08115914029F48EB53F
S113099084608EBD81E006C08EB585608EBD81E029
S11309A001C081E0CF91FF90EF90DF90CF90BF9096
S11309B0AF909F908F9008950F931F938B019C018C
S11309C0672B682B692B89F416C000000196883EBA
S11309D0E3E09E07D1F74F5F5F4F6F4F7F4F0417E0
S11309E015072607370721F406C040E050E0BA0196
S11309F080E090E0EACF1F910F91089580E00E947B
S1130A00A40281E00E94A40208958230D9F028F45F
S1130A10882341F0813069F02FC08330E1F08430C5
S1130A2019F12AC080E00E94630381E00E946303FD
S1130A3023C061E080E00E94FC0261E081E00E944A
S1130A40FC021AC062E080E00E94FC0262E081E0E5
S1130A500E94FC0211C062E080E00E94FC0261E09E
S1130A6081E00E94FC0208C061E080E00E94FC0278
S1130A7062E081E00E94FC0280E00895FC01892B81
S1130A8009F489C08081843008F087C0813079F10D
S1130A9020F0823009F455C082C08181813021F078
S1130AA068F0823031F00FC087E080938C0081E0E1
S1130AB00BC086E080938C0081E006C08381809324
S1130AC08C0081E001C080E09281992319F091307B
S1130AD029F008C099B79E7F99BF05C099B7916066
S1130AE099BF01C080E091E09093890008958181CD
S1130AF0813021F068F0823031F00FC087E08093BC
S1130B008C0081E00BC086E080938C0081E006C0FD
S1130B10838180938C0081E001C080E092819923DD
S1130B2019F0913029F008C099B79B7F99BF05C08F
S1130B3099B7946099BF01C080E091E090938800D8
S1130B4008958181813021F068F0823031F00FC046
S1130B5087E080938C0081E00BC086E080938C005A
S1130B6081E006C0838180938C0081E001C080E035
S1130B709281992319F0913029F008C099B79F7B8D
S1130B8099BF05C099B7906499BF01C080E091E016
S1130B9090938700089580E0089580E0089580E0B0
S1130BA00895843008F0AEC08130D9F120F082304D
S1130BB009F46EC0A9C080918900882309F4A6C0F5
S1130BC080918C008230B1F028F4882351F0813078
S1130BD061F024C08630C1F08730D9F08430F1F45C
S1130BE00EC083B783BF81E01AC083B7816083BF1F
S1130BF081E015C083B7826083BF81E010C083B7F2
S1130C00836083BF81E00BC083B7846083BF81E0CE
S1130C1006C083B7856083BF81E001C080E062BF06
S1130C20089580918800882309F472C080918C0013
S1130C308230B1F028F4882351F0813061F024C06F
S1130C408630C1F08730D9F08430F1F40EC08EB50F
S1130C508EBD81E01AC08EB581608EBD81E015C065
S1130C608EB582608EBD81E010C08EB583608EBD6E
S1130C7081E00BC08EB584608EBD81E006C08EB568
S1130C8085608EBD81E001C080E07DBD6CBD0895AE
S1130C90809187008823F1F1E0918C008E2F90E001
S1130CA08830910560F5FC01EE5CFF4F0C94D1088F
S1130CB085B585BD81E024C085B5816085BD81E0B1
S1130CC01FC085B5826085BD81E01AC085B583608B
S1130CD085BD81E015C085B5846085BD81E010C007
S1130CE085B5856085BD81E00BC085B5866085BD11
S1130CF081E006C085B5876085BD81E001C080E0E4
S1130D0064BD089580E0089580E0089580E008952A
S1130D1080E0089580E00895843048F5813079F0CA
S1130D2018F08230C9F025C080918900882319F118
S1130D3082B790E0FB019183808381E008958091E4
S1130D4088008823D1F02DB58CB590E0922BFB015F
S1130D509183808381E0089580918700882379F0CE
S1130D6084B590E0FB019183808381E0089580E065
S1130D70089580E0089580E0089580E0089580E07B
S1130D800895CF93DF9300D000D01F92CDB7DEB784
S1130D9081E0898388E08A838FEF8B83CE0101967B
S1130DA00E94990082E08C831D82CE0104960E94E9
S1130DB0B4010F900F900F900F900F90DF91CF918F
S1130DC008954FEF68E081E00E94EA0061E070E07E
S1130DD080E090E00E94DC0440E068E081E00E9452
S1130DE0EA0008950F931F93CF93DF931F92CDB71B
S1130DF0DEB78C011982AE014F5F5F4F61E080E086
S1130E000E94EC019981969527E4929F912D1124DB
S1130E10969596959695F80190830F90DF91CF91D2
S1130E201F910F9108950E9427070C9408080E94AF
S1130E30010858F00E94FA0740F029F45F3F29F0B6
S1130E400C94F10751110C943C080C94F7070E9480
S1130E50190868F39923B1F3552391F3951B550BA6
S1130E60BB27AA2762177307840738F09F5F5F4F79
S1130E70220F331F441FAA1FA9F335D00E2E3AF0B8
S1130E80E0E832D091505040E695001CCAF72BD0D0
S1130E90FE2F29D0660F771F881FBB1F2617370721
S1130EA04807AB07B0E809F0BB0B802DBF01FF2753
S1130EB093585F4F3AF09E3F510578F00C94F10738
S1130EC00C943C085F3FE4F3983ED4F38695779501
S1130ED06795B795F7959F5FC9F7880F911D96950C
S1130EE0879597F90895E1E0660F771F881FBB1F68
S1130EF0621773078407BA0720F0621B730B840B15
S1130F00BA0BEE1F88F7E09508950E94210888F037
S1130F109F5798F0B92F9927B751B0F0E1F0660FB9
S1130F20771F881F991F1AF0BA95C9F714C0B130FA
S1130F3091F00E943B08B1E008950C943B08672FA0
S1130F40782F8827B85F39F0B93FCCF38695779529
S1130F506795B395D9F73EF4909580957095619512
S1130F607F4F8F4F9F4F0895E89409C097FB3EF43D
S1130F7090958095709561957F4F8F4F9F4F9923E2
S1130F80A9F0F92F96E9BB279395F6958795779560
S1130F906795B795F111F8CFFAF4BB0F11F460FF20
S1130FA01BC06F5F7F4F8F4F9F4F16C0882311F078
S1130FB096E911C0772321F09EE8872F762F05C08C
S1130FC0662371F096E8862F70E060E02AF09A9527
S1130FD0660F771F881FDAF7880F9695879597F91C
S1130FE0089597F99F6780E870E060E008959FEFA7
S1130FF080EC089500240A941616170618060906AC
S1131000089500240A94121613061406050608957A
S1131010092E0394000C11F4882352F0BB0F40F402
S1131020BF2B11F460FF04C06F5F7F4F8F4F9F4F42
S1131030089557FD9058440F551F59F05F3F71F0C4
S11310404795880F97FB991F61F09F3F79F087952B
S11310500895121613061406551FF2CF4695F1DFB4
S113106008C0161617061806991FF1CF8695710544
S1131070610508940895E894BB2766277727CB0178
S113108097F908950E9455080C9408080E94FA07DD
S113109038F00E94010820F0952311F00C94F10718
S11310A00C94F70711240C943C080E94190870F35F
S11310B0959FC1F3950F50E0551F629FF001729FF9
S11310C0BB27F00DB11D639FAA27F00DB11DAA1F08
S11310D0649F6627B00DA11D661F829F2227B00D55
S11310E0A11D621F739FB00DA11D621F839FA00DE0
S11310F0611D221F749F3327A00D611D231F849F30
S1131100600D211D822F762F6A2F11249F57504086
S11311109AF0F1F088234AF0EE0FFF1FBB1F661F01
S1131120771F881F91505040A9F79E3F510580F0CA
S11311300C94F1070C943C085F3FE4F3983ED4F31D
S1131140869577956795B795F795E7959F5FC1F76E
S1131150FE2B880F911D9695879597F90895A1E226
S11311601A2EAA1BBB1BFD010DC0AA1FBB1FEE1F1D
S1131170FF1FA217B307E407F50720F0A21BB30B68
S1131180E40BF50B661F771F881F991F1A9469F7E4
S113119060957095809590959B01AC01BD01CF0140
S11311A00895EE0FFF1F0590F491E02D09940E941D
S11311B0E208A59F900DB49F900DA49F800D911DF2
S11311C011240895A29FB001B39FC001A39F700D85
S11311D0811D1124911DB29F700D811D1124911D3B
S10911E00895F894FFCF0E
S11311E6010380FF0340FF0320FF0308FF0304FFFE
S10911F60310FF020400D7
S9030000FC
